{
  "contractName": "SocialChain",
  "abi": [
    {
      "inputs": [],
      "stateMutability": "nonpayable",
      "type": "constructor"
    },
    {
      "anonymous": false,
      "inputs": [
        {
          "indexed": false,
          "internalType": "uint256",
          "name": "id",
          "type": "uint256"
        },
        {
          "indexed": false,
          "internalType": "string",
          "name": "hash",
          "type": "string"
        },
        {
          "indexed": false,
          "internalType": "string",
          "name": "description",
          "type": "string"
        },
        {
          "indexed": false,
          "internalType": "uint256",
          "name": "tipAmount",
          "type": "uint256"
        },
        {
          "indexed": false,
          "internalType": "address",
          "name": "author",
          "type": "address"
        }
      ],
      "name": "ImageCreated",
      "type": "event"
    },
    {
      "anonymous": false,
      "inputs": [
        {
          "indexed": false,
          "internalType": "uint256",
          "name": "id",
          "type": "uint256"
        },
        {
          "indexed": false,
          "internalType": "string",
          "name": "hash",
          "type": "string"
        },
        {
          "indexed": false,
          "internalType": "string",
          "name": "description",
          "type": "string"
        },
        {
          "indexed": false,
          "internalType": "uint256",
          "name": "tipAmount",
          "type": "uint256"
        },
        {
          "indexed": false,
          "internalType": "address",
          "name": "author",
          "type": "address"
        }
      ],
      "name": "ImageTipped",
      "type": "event"
    },
    {
      "inputs": [],
      "name": "imageCount",
      "outputs": [
        {
          "internalType": "uint256",
          "name": "",
          "type": "uint256"
        }
      ],
      "stateMutability": "view",
      "type": "function",
      "constant": true
    },
    {
      "inputs": [
        {
          "internalType": "uint256",
          "name": "",
          "type": "uint256"
        }
      ],
      "name": "images",
      "outputs": [
        {
          "internalType": "uint256",
          "name": "id",
          "type": "uint256"
        },
        {
          "internalType": "string",
          "name": "hash",
          "type": "string"
        },
        {
          "internalType": "string",
          "name": "description",
          "type": "string"
        },
        {
          "internalType": "uint256",
          "name": "tipAmount",
          "type": "uint256"
        },
        {
          "internalType": "address payable",
          "name": "author",
          "type": "address"
        }
      ],
      "stateMutability": "view",
      "type": "function",
      "constant": true
    },
    {
      "inputs": [],
      "name": "name",
      "outputs": [
        {
          "internalType": "string",
          "name": "",
          "type": "string"
        }
      ],
      "stateMutability": "view",
      "type": "function",
      "constant": true
    },
    {
      "inputs": [
        {
          "internalType": "string",
          "name": "_hash",
          "type": "string"
        },
        {
          "internalType": "string",
          "name": "_description",
          "type": "string"
        }
      ],
      "name": "uploadImage",
      "outputs": [],
      "stateMutability": "nonpayable",
      "type": "function"
    },
    {
      "inputs": [
        {
          "internalType": "uint256",
          "name": "index",
          "type": "uint256"
        }
      ],
      "name": "tipImageOwner",
      "outputs": [],
      "stateMutability": "payable",
      "type": "function",
      "payable": true
    }
  ],
  "bytecode": "0x60806040523480156200001157600080fd5b506040518060400160405280600b81526020017f536f6369616c436861696e000000000000000000000000000000000000000000815250600090805190602001906200005f92919062000066565b506200017a565b828054620000749062000145565b90600052602060002090601f016020900481019282620000985760008555620000e4565b82601f10620000b357805160ff1916838001178555620000e4565b82800160010185558215620000e4579182015b82811115620000e3578251825591602001919060010190620000c6565b5b509050620000f39190620000f7565b5090565b5b8082111562000112576000816000905550600101620000f8565b5090565b7f4e487b7100000000000000000000000000000000000000000000000000000000600052602260045260246000fd5b600060028204905060018216806200015e57607f821691505b60208210810362000174576200017362000116565b5b50919050565b610f23806200018a6000396000f3fe60806040526004361061004a5760003560e01c806306fdde031461004f578063848564821461007a5780638567ade8146100bb57806392053b63146100d7578063a91b831414610102575b600080fd5b34801561005b57600080fd5b5061006461012b565b6040516100719190610931565b60405180910390f35b34801561008657600080fd5b506100a1600480360381019061009c919061099d565b6101b9565b6040516100b2959493929190610a1a565b60405180910390f35b6100d560048036038101906100d0919061099d565b61031f565b005b3480156100e357600080fd5b506100ec61064f565b6040516100f99190610a7b565b60405180910390f35b34801561010e57600080fd5b5061012960048036038101906101249190610bcb565b610655565b005b6000805461013890610c72565b80601f016020809104026020016040519081016040528092919081815260200182805461016490610c72565b80156101b15780601f10610186576101008083540402835291602001916101b1565b820191906000526020600020905b81548152906001019060200180831161019457829003601f168201915b505050505081565b60026020528060005260406000206000915090508060000154908060010180546101e290610c72565b80601f016020809104026020016040519081016040528092919081815260200182805461020e90610c72565b801561025b5780601f106102305761010080835404028352916020019161025b565b820191906000526020600020905b81548152906001019060200180831161023e57829003601f168201915b50505050509080600201805461027090610c72565b80601f016020809104026020016040519081016040528092919081815260200182805461029c90610c72565b80156102e95780601f106102be576101008083540402835291602001916102e9565b820191906000526020600020905b8154815290600101906020018083116102cc57829003601f168201915b5050505050908060030154908060040160009054906101000a900473ffffffffffffffffffffffffffffffffffffffff16905085565b60008111801561033157506001548111155b61033a57600080fd5b6000600260008381526020019081526020016000206040518060a00160405290816000820154815260200160018201805461037490610c72565b80601f01602080910402602001604051908101604052809291908181526020018280546103a090610c72565b80156103ed5780601f106103c2576101008083540402835291602001916103ed565b820191906000526020600020905b8154815290600101906020018083116103d057829003601f168201915b5050505050815260200160028201805461040690610c72565b80601f016020809104026020016040519081016040528092919081815260200182805461043290610c72565b801561047f5780601f106104545761010080835404028352916020019161047f565b820191906000526020600020905b81548152906001019060200180831161046257829003601f168201915b50505050508152602001600382015481526020016004820160009054906101000a900473ffffffffffffffffffffffffffffffffffffffff1673ffffffffffffffffffffffffffffffffffffffff1673ffffffffffffffffffffffffffffffffffffffff168152505090506000816080015190508073ffffffffffffffffffffffffffffffffffffffff166108fc349081150290604051600060405180830381858888f19350505050158015610539573d6000803e3d6000fd5b5034826060015161054a9190610cd2565b826060018181525050816002600085815260200190815260200160002060008201518160000155602082015181600101908051906020019061058d9291906107f5565b5060408201518160020190805190602001906105aa9291906107f5565b506060820151816003015560808201518160040160006101000a81548173ffffffffffffffffffffffffffffffffffffffff021916908373ffffffffffffffffffffffffffffffffffffffff1602179055509050507f1be5317bca8d3f70dc1efe89958be71bff36cdca33fc00a6423e25eb2f1d492f8383602001518460400151856060015185604051610642959493929190610d87565b60405180910390a1505050565b60015481565b600082511161066357600080fd5b600081511161067157600080fd5b600073ffffffffffffffffffffffffffffffffffffffff163373ffffffffffffffffffffffffffffffffffffffff16036106aa57600080fd5b600160008154809291906106bd90610de8565b91905055506040518060a001604052806001548152602001838152602001828152602001600081526020013373ffffffffffffffffffffffffffffffffffffffff1681525060026000600154815260200190815260200160002060008201518160000155602082015181600101908051906020019061073d9291906107f5565b50604082015181600201908051906020019061075a9291906107f5565b506060820151816003015560808201518160040160006101000a81548173ffffffffffffffffffffffffffffffffffffffff021916908373ffffffffffffffffffffffffffffffffffffffff1602179055509050507fc1d8dfa99b3f84f95d3f0bc4a768addeb97b83b20aef7f9cb6729e126bafd2f960015483836000336040516107e9959493929190610e8c565b60405180910390a15050565b82805461080190610c72565b90600052602060002090601f016020900481019282610823576000855561086a565b82601f1061083c57805160ff191683800117855561086a565b8280016001018555821561086a579182015b8281111561086957825182559160200191906001019061084e565b5b509050610877919061087b565b5090565b5b8082111561089457600081600090555060010161087c565b5090565b600081519050919050565b600082825260208201905092915050565b60005b838110156108d25780820151818401526020810190506108b7565b838111156108e1576000848401525b50505050565b6000601f19601f8301169050919050565b600061090382610898565b61090d81856108a3565b935061091d8185602086016108b4565b610926816108e7565b840191505092915050565b6000602082019050818103600083015261094b81846108f8565b905092915050565b6000604051905090565b600080fd5b600080fd5b6000819050919050565b61097a81610967565b811461098557600080fd5b50565b60008135905061099781610971565b92915050565b6000602082840312156109b3576109b261095d565b5b60006109c184828501610988565b91505092915050565b6109d381610967565b82525050565b600073ffffffffffffffffffffffffffffffffffffffff82169050919050565b6000610a04826109d9565b9050919050565b610a14816109f9565b82525050565b600060a082019050610a2f60008301886109ca565b8181036020830152610a4181876108f8565b90508181036040830152610a5581866108f8565b9050610a6460608301856109ca565b610a716080830184610a0b565b9695505050505050565b6000602082019050610a9060008301846109ca565b92915050565b600080fd5b600080fd5b7f4e487b7100000000000000000000000000000000000000000000000000000000600052604160045260246000fd5b610ad8826108e7565b810181811067ffffffffffffffff82111715610af757610af6610aa0565b5b80604052505050565b6000610b0a610953565b9050610b168282610acf565b919050565b600067ffffffffffffffff821115610b3657610b35610aa0565b5b610b3f826108e7565b9050602081019050919050565b82818337600083830152505050565b6000610b6e610b6984610b1b565b610b00565b905082815260208101848484011115610b8a57610b89610a9b565b5b610b95848285610b4c565b509392505050565b600082601f830112610bb257610bb1610a96565b5b8135610bc2848260208601610b5b565b91505092915050565b60008060408385031215610be257610be161095d565b5b600083013567ffffffffffffffff811115610c0057610bff610962565b5b610c0c85828601610b9d565b925050602083013567ffffffffffffffff811115610c2d57610c2c610962565b5b610c3985828601610b9d565b9150509250929050565b7f4e487b7100000000000000000000000000000000000000000000000000000000600052602260045260246000fd5b60006002820490506001821680610c8a57607f821691505b602082108103610c9d57610c9c610c43565b5b50919050565b7f4e487b7100000000000000000000000000000000000000000000000000000000600052601160045260246000fd5b6000610cdd82610967565b9150610ce883610967565b9250827fffffffffffffffffffffffffffffffffffffffffffffffffffffffffffffffff03821115610d1d57610d1c610ca3565b5b828201905092915050565b6000819050919050565b6000610d4d610d48610d43846109d9565b610d28565b6109d9565b9050919050565b6000610d5f82610d32565b9050919050565b6000610d7182610d54565b9050919050565b610d8181610d66565b82525050565b600060a082019050610d9c60008301886109ca565b8181036020830152610dae81876108f8565b90508181036040830152610dc281866108f8565b9050610dd160608301856109ca565b610dde6080830184610d78565b9695505050505050565b6000610df382610967565b91507fffffffffffffffffffffffffffffffffffffffffffffffffffffffffffffffff8203610e2557610e24610ca3565b5b600182019050919050565b6000819050919050565b6000610e55610e50610e4b84610e30565b610d28565b610967565b9050919050565b610e6581610e3a565b82525050565b6000610e76826109d9565b9050919050565b610e8681610e6b565b82525050565b600060a082019050610ea160008301886109ca565b8181036020830152610eb381876108f8565b90508181036040830152610ec781866108f8565b9050610ed66060830185610e5c565b610ee36080830184610e7d565b969550505050505056fea2646970667358221220b043243d4ec214260d832f09fc183777e5e0123414a2a0b521d73338f5a11f4d64736f6c634300080d0033",
  "immutableReferences": {},
  "source": "// SPDX-License-Identifier: MIT\r\npragma solidity ^0.8.0;\r\n\r\ncontract SocialChain {\r\n    string public name;\r\n    uint256 public imageCount;\r\n    mapping(uint256 => Image) public images;\r\n\r\n    struct Image {\r\n        uint256 id;\r\n        string hash;\r\n        string description;\r\n        uint256 tipAmount;\r\n        address payable author;\r\n    }\r\n\r\n    event ImageCreated(\r\n        uint256 id,\r\n        string hash,\r\n        string description,\r\n        uint256 tipAmount,\r\n        address author\r\n    );\r\n\r\n    event ImageTipped(\r\n        uint256 id,\r\n        string hash,\r\n        string description,\r\n        uint256 tipAmount,\r\n        address author\r\n    );\r\n\r\n    constructor() {\r\n        name = \"SocialChain\";\r\n    }\r\n\r\n    function uploadImage(string memory _hash, string memory _description)\r\n        public\r\n    {\r\n        require(bytes(_hash).length > 0);\r\n        require(bytes(_description).length > 0);\r\n        require(msg.sender != address(0));\r\n\r\n        imageCount++;\r\n        images[imageCount] = Image(\r\n            imageCount,\r\n            _hash,\r\n            _description,\r\n            0,\r\n            payable(msg.sender)\r\n        );\r\n\r\n        emit ImageCreated(imageCount, _hash, _description, 0, msg.sender);\r\n    }\r\n\r\n    function tipImageOwner(uint256 index) public payable {\r\n        require(index > 0 && index <= imageCount);\r\n        Image memory image = images[index];\r\n        address payable _author = image.author;\r\n        _author.transfer(msg.value);\r\n        image.tipAmount = image.tipAmount + msg.value;\r\n        images[index] = image;\r\n        emit ImageTipped(\r\n            index,\r\n            image.hash,\r\n            image.description,\r\n            image.tipAmount,\r\n            _author\r\n        );\r\n    }\r\n}\r\n",
  "sourcePath": "C:\\Users\\shrav\\Desktop\\Blockchain\\socialchain\\src\\contracts\\Socialchain.sol",
  "compiler": {
    "name": "solc",
    "version": "0.8.13+commit.abaa5c0e.Emscripten.clang"
  },
  "schemaVersion": "3.4.6",
  "updatedAt": "2022-04-07T04:10:46.199Z",
  "networkType": "ethereum",
  "devdoc": {
    "kind": "dev",
    "methods": {},
    "version": 1
  },
  "userdoc": {
    "kind": "user",
    "methods": {},
    "version": 1
  }
}